{
  "contractName": "Payroll",
  "abi": [
    {
      "constant": true,
      "inputs": [],
      "name": "owner",
      "outputs": [
        {
          "name": "",
          "type": "address"
        }
      ],
      "payable": false,
      "stateMutability": "view",
      "type": "function"
    },
    {
      "constant": true,
      "inputs": [
        {
          "name": "",
          "type": "address"
        }
      ],
      "name": "employees",
      "outputs": [
        {
          "name": "id",
          "type": "address"
        },
        {
          "name": "salary",
          "type": "uint256"
        },
        {
          "name": "lastPayDay",
          "type": "uint256"
        }
      ],
      "payable": false,
      "stateMutability": "view",
      "type": "function"
    },
    {
      "constant": false,
      "inputs": [
        {
          "name": "newOwner",
          "type": "address"
        }
      ],
      "name": "transferOwnership",
      "outputs": [],
      "payable": false,
      "stateMutability": "nonpayable",
      "type": "function"
    },
    {
      "anonymous": false,
      "inputs": [
        {
          "indexed": true,
          "name": "previousOwner",
          "type": "address"
        },
        {
          "indexed": true,
          "name": "newOwner",
          "type": "address"
        }
      ],
      "name": "OwnershipTransferred",
      "type": "event"
    },
    {
      "constant": false,
      "inputs": [
        {
          "name": "empid",
          "type": "address"
        },
        {
          "name": "salary",
          "type": "uint256"
        }
      ],
      "name": "addEmployee",
      "outputs": [],
      "payable": false,
      "stateMutability": "nonpayable",
      "type": "function"
    },
    {
      "constant": false,
      "inputs": [
        {
          "name": "empid",
          "type": "address"
        }
      ],
      "name": "removeEmployee",
      "outputs": [],
      "payable": false,
      "stateMutability": "nonpayable",
      "type": "function"
    },
    {
      "constant": false,
      "inputs": [
        {
          "name": "empid",
          "type": "address"
        },
        {
          "name": "salary",
          "type": "uint256"
        }
      ],
      "name": "updateEmplpyee",
      "outputs": [],
      "payable": false,
      "stateMutability": "nonpayable",
      "type": "function"
    },
    {
      "constant": false,
      "inputs": [
        {
          "name": "oldAddress",
          "type": "address"
        },
        {
          "name": "newAddress",
          "type": "address"
        }
      ],
      "name": "changePaymentAddress",
      "outputs": [],
      "payable": false,
      "stateMutability": "nonpayable",
      "type": "function"
    },
    {
      "constant": false,
      "inputs": [],
      "name": "addFund",
      "outputs": [
        {
          "name": "leftSalary",
          "type": "uint256"
        }
      ],
      "payable": true,
      "stateMutability": "payable",
      "type": "function"
    },
    {
      "constant": true,
      "inputs": [],
      "name": "calculateRunway",
      "outputs": [
        {
          "name": "times",
          "type": "uint256"
        }
      ],
      "payable": false,
      "stateMutability": "view",
      "type": "function"
    },
    {
      "constant": true,
      "inputs": [],
      "name": "hasEnoughFound",
      "outputs": [
        {
          "name": "enough",
          "type": "bool"
        }
      ],
      "payable": false,
      "stateMutability": "view",
      "type": "function"
    },
    {
      "constant": false,
      "inputs": [],
      "name": "getPaid",
      "outputs": [],
      "payable": false,
      "stateMutability": "nonpayable",
      "type": "function"
    }
  ],
  "bytecode": "0x60606040526000600155336000806101000a81548173ffffffffffffffffffffffffffffffffffffffff021916908373ffffffffffffffffffffffffffffffffffffffff160217905550611330806100586000396000f3006060604052600436106100af576000357c0100000000000000000000000000000000000000000000000000000000900463ffffffff1680631c6cb382146100b45780634ec19512146100e15780638da5cb5b1461010a578063a2f09dfa1461015f578063ab97a9941461017d578063bc456c42146101bf578063cf41d6f814610217578063d06789471461022c578063d108177a146102b3578063e7fd9a13146102ec578063f2fde38b1461032e575b600080fd5b34156100bf57600080fd5b6100c7610367565b604051808215151515815260200191505060405180910390f35b34156100ec57600080fd5b6100f4610378565b6040518082815260200191505060405180910390f35b341561011557600080fd5b61011d6103a4565b604051808273ffffffffffffffffffffffffffffffffffffffff1673ffffffffffffffffffffffffffffffffffffffff16815260200191505060405180910390f35b6101676103c9565b6040518082815260200191505060405180910390f35b341561018857600080fd5b6101bd600480803573ffffffffffffffffffffffffffffffffffffffff169060200190919080359060200190919050506103e8565b005b34156101ca57600080fd5b610215600480803573ffffffffffffffffffffffffffffffffffffffff1690602001909190803573ffffffffffffffffffffffffffffffffffffffff169060200190919050506106f9565b005b341561022257600080fd5b61022a6109ee565b005b341561023757600080fd5b610263600480803573ffffffffffffffffffffffffffffffffffffffff16906020019091905050610b97565b604051808473ffffffffffffffffffffffffffffffffffffffff1673ffffffffffffffffffffffffffffffffffffffff168152602001838152602001828152602001935050505060405180910390f35b34156102be57600080fd5b6102ea600480803573ffffffffffffffffffffffffffffffffffffffff16906020019091905050610be1565b005b34156102f757600080fd5b61032c600480803573ffffffffffffffffffffffffffffffffffffffff16906020019091908035906020019091905050610e65565b005b341561033957600080fd5b610365600480803573ffffffffffffffffffffffffffffffffffffffff16906020019091905050611096565b005b600080610372610378565b11905090565b60006001543073ffffffffffffffffffffffffffffffffffffffff163181151561039e57fe5b04905090565b6000809054906101000a900473ffffffffffffffffffffffffffffffffffffffff1681565b60003073ffffffffffffffffffffffffffffffffffffffff1631905090565b60008060009054906101000a900473ffffffffffffffffffffffffffffffffffffffff1673ffffffffffffffffffffffffffffffffffffffff163373ffffffffffffffffffffffffffffffffffffffff1614151561044557600080fd5b826000600360008373ffffffffffffffffffffffffffffffffffffffff1673ffffffffffffffffffffffffffffffffffffffff168152602001908152602001600020905060008160000160009054906101000a900473ffffffffffffffffffffffffffffffffffffffff1673ffffffffffffffffffffffffffffffffffffffff16141515156104d057fe5b600360008673ffffffffffffffffffffffffffffffffffffffff1673ffffffffffffffffffffffffffffffffffffffff168152602001908152602001600020925061059083606060405190810160405290816000820160009054906101000a900473ffffffffffffffffffffffffffffffffffffffff1673ffffffffffffffffffffffffffffffffffffffff1673ffffffffffffffffffffffffffffffffffffffff168152602001600182015481526020016002820154815250506111eb565b6105e7600360008773ffffffffffffffffffffffffffffffffffffffff1673ffffffffffffffffffffffffffffffffffffffff1681526020019081526020016000206001015460015461127790919063ffffffff16565b60018190555042600360008773ffffffffffffffffffffffffffffffffffffffff1673ffffffffffffffffffffffffffffffffffffffff1681526020019081526020016000206002018190555061064f670de0b6b3a76400008561129090919063ffffffff16565b600360008773ffffffffffffffffffffffffffffffffffffffff1673ffffffffffffffffffffffffffffffffffffffff168152602001908152602001600020600101819055506106ec600360008773ffffffffffffffffffffffffffffffffffffffff1673ffffffffffffffffffffffffffffffffffffffff168152602001908152602001600020600101546001546112cb90919063ffffffff16565b6001819055505050505050565b60008060009054906101000a900473ffffffffffffffffffffffffffffffffffffffff1673ffffffffffffffffffffffffffffffffffffffff163373ffffffffffffffffffffffffffffffffffffffff1614151561075657600080fd5b826000600360008373ffffffffffffffffffffffffffffffffffffffff1673ffffffffffffffffffffffffffffffffffffffff168152602001908152602001600020905060008160000160009054906101000a900473ffffffffffffffffffffffffffffffffffffffff1673ffffffffffffffffffffffffffffffffffffffff16141515156107e157fe5b836000600360008373ffffffffffffffffffffffffffffffffffffffff1673ffffffffffffffffffffffffffffffffffffffff168152602001908152602001600020905060008160000160009054906101000a900473ffffffffffffffffffffffffffffffffffffffff1673ffffffffffffffffffffffffffffffffffffffff1614151561086b57fe5b600360008873ffffffffffffffffffffffffffffffffffffffff1673ffffffffffffffffffffffffffffffffffffffff1681526020019081526020016000206001015494506060604051908101604052808773ffffffffffffffffffffffffffffffffffffffff16815260200186815260200142815250600360008873ffffffffffffffffffffffffffffffffffffffff1673ffffffffffffffffffffffffffffffffffffffff16815260200190815260200160002060008201518160000160006101000a81548173ffffffffffffffffffffffffffffffffffffffff021916908373ffffffffffffffffffffffffffffffffffffffff16021790555060208201518160010155604082015181600201559050506109d6600360008873ffffffffffffffffffffffffffffffffffffffff1673ffffffffffffffffffffffffffffffffffffffff168152602001908152602001600020600101546001546112cb90919063ffffffff16565b6001819055506109e587610be1565b50505050505050565b600080336000600360008373ffffffffffffffffffffffffffffffffffffffff1673ffffffffffffffffffffffffffffffffffffffff168152602001908152602001600020905060008160000160009054906101000a900473ffffffffffffffffffffffffffffffffffffffff1673ffffffffffffffffffffffffffffffffffffffff1614151515610a7c57fe5b600360003373ffffffffffffffffffffffffffffffffffffffff1673ffffffffffffffffffffffffffffffffffffffff1681526020019081526020016000209350610ad5600a85600201546112cb90919063ffffffff16565b92504283101515610ae257fe5b82600360003373ffffffffffffffffffffffffffffffffffffffff1673ffffffffffffffffffffffffffffffffffffffff168152602001908152602001600020600201819055508360000160009054906101000a900473ffffffffffffffffffffffffffffffffffffffff1673ffffffffffffffffffffffffffffffffffffffff166108fc85600101549081150290604051600060405180830381858888f193505050501515610b9157600080fd5b50505050565b60036020528060005260406000206000915090508060000160009054906101000a900473ffffffffffffffffffffffffffffffffffffffff16908060010154908060020154905083565b60008060009054906101000a900473ffffffffffffffffffffffffffffffffffffffff1673ffffffffffffffffffffffffffffffffffffffff163373ffffffffffffffffffffffffffffffffffffffff16141515610c3e57600080fd5b816000600360008373ffffffffffffffffffffffffffffffffffffffff1673ffffffffffffffffffffffffffffffffffffffff168152602001908152602001600020905060008160000160009054906101000a900473ffffffffffffffffffffffffffffffffffffffff1673ffffffffffffffffffffffffffffffffffffffff1614151515610cc957fe5b600360008573ffffffffffffffffffffffffffffffffffffffff1673ffffffffffffffffffffffffffffffffffffffff1681526020019081526020016000209250610d8983606060405190810160405290816000820160009054906101000a900473ffffffffffffffffffffffffffffffffffffffff1673ffffffffffffffffffffffffffffffffffffffff1673ffffffffffffffffffffffffffffffffffffffff168152602001600182015481526020016002820154815250506111eb565b610de0600360008673ffffffffffffffffffffffffffffffffffffffff1673ffffffffffffffffffffffffffffffffffffffff1681526020019081526020016000206001015460015461127790919063ffffffff16565b600181905550600360008573ffffffffffffffffffffffffffffffffffffffff1673ffffffffffffffffffffffffffffffffffffffff168152602001908152602001600020600080820160006101000a81549073ffffffffffffffffffffffffffffffffffffffff021916905560018201600090556002820160009055505050505050565b6000809054906101000a900473ffffffffffffffffffffffffffffffffffffffff1673ffffffffffffffffffffffffffffffffffffffff163373ffffffffffffffffffffffffffffffffffffffff16141515610ec057600080fd5b816000600360008373ffffffffffffffffffffffffffffffffffffffff1673ffffffffffffffffffffffffffffffffffffffff168152602001908152602001600020905060008160000160009054906101000a900473ffffffffffffffffffffffffffffffffffffffff1673ffffffffffffffffffffffffffffffffffffffff16141515610f4a57fe5b6060604051908101604052808573ffffffffffffffffffffffffffffffffffffffff168152602001610f8d670de0b6b3a76400008661129090919063ffffffff16565b815260200142815250600360008673ffffffffffffffffffffffffffffffffffffffff1673ffffffffffffffffffffffffffffffffffffffff16815260200190815260200160002060008201518160000160006101000a81548173ffffffffffffffffffffffffffffffffffffffff021916908373ffffffffffffffffffffffffffffffffffffffff160217905550602082015181600101556040820151816002015590505061108a600360008673ffffffffffffffffffffffffffffffffffffffff1673ffffffffffffffffffffffffffffffffffffffff168152602001908152602001600020600101546001546112cb90919063ffffffff16565b60018190555050505050565b6000809054906101000a900473ffffffffffffffffffffffffffffffffffffffff1673ffffffffffffffffffffffffffffffffffffffff163373ffffffffffffffffffffffffffffffffffffffff161415156110f157600080fd5b600073ffffffffffffffffffffffffffffffffffffffff168173ffffffffffffffffffffffffffffffffffffffff161415151561112d57600080fd5b8073ffffffffffffffffffffffffffffffffffffffff166000809054906101000a900473ffffffffffffffffffffffffffffffffffffffff1673ffffffffffffffffffffffffffffffffffffffff167f8be0079c531659141344cd1fd0a4f28419497f9722a3daafe3b4186f6b6457e060405160405180910390a3806000806101000a81548173ffffffffffffffffffffffffffffffffffffffff021916908373ffffffffffffffffffffffffffffffffffffffff16021790555050565b600061122d600a61121f61120c85604001514261127790919063ffffffff16565b856020015161129090919063ffffffff16565b6112e990919063ffffffff16565b9050816000015173ffffffffffffffffffffffffffffffffffffffff166108fc829081150290604051600060405180830381858888f19350505050151561127357600080fd5b5050565b600082821115151561128557fe5b818303905092915050565b60008060008414156112a557600091506112c4565b82840290508284828115156112b657fe5b041415156112c057fe5b8091505b5092915050565b60008082840190508381101515156112df57fe5b8091505092915050565b60008082848115156112f757fe5b04905080915050929150505600a165627a7a723058208e71c72f78b926148a872d756f772188bcaa3d9441741a696203ad7b32359d800029",
  "source": "/*作业请提交在这个目录下*/\npragma solidity ^0.4.18;\nimport './Ownable.sol';\nimport './SafeMath.sol';\n\n/**\n *  产品化步骤\n *  1.引入ownable，删除本地构造函数使用父类的构造函数\n *  2.使用ownable 定义的 modifier 和自己定义的 modifier 进行前置判断\n *  3.使用safemath 防止溢出\n *  4.增加修改员工付款地址的方法\n **/\ncontract Payroll is Ownable{\n\tusing SafeMath for uint;\n    uint constant payDuration = 10 seconds;\n    uint totalSalary = 0;\n    address owner;\n   \n    struct Employee {\n        address id;\n        uint salary;\n        uint lastPayDay;\n    }\n\n    mapping(address => Employee) public employees;\n    \n    \n    modifier employeeExist(address empid){\n       var employee = employees[empid];\n       assert(employee.id != 0x0);\n        _;\n    }\n\n    //新增一个判断员工是否存在的 modifier\n    modifier employeeNotExist(address newEmpid){\n       var employee = employees[newEmpid];\n       assert(employee.id == 0x0);\n        _;\n    }\n\n    function _partialPay(Employee employee) private{\n          uint payment = employee.salary.mul(now.sub(employee.lastPayDay)).div(payDuration);\n          employee.id.transfer(payment);\n        \n    }\n    \n    function addEmployee(address empid,uint salary) public onlyOwner employeeNotExist(empid){\n        employees[empid] = Employee(empid, salary.mul(1 ether), now);\n        totalSalary = totalSalary.add(employees[empid].salary);\n        \n    }\n    \n    function removeEmployee(address empid) public onlyOwner employeeExist(empid){\n \t\tvar employee = employees[empid];\n \t\t_partialPay(employee);\n \t\ttotalSalary = totalSalary.sub(employees[empid].salary);\n        delete(employees[empid]);\n        \n    }\n  \n    function updateEmplpyee (address empid,uint salary) public onlyOwner employeeExist(empid){\n    \tvar employee = employees[empid];\n      \t_partialPay(employee);\n      \ttotalSalary = totalSalary.sub(employees[empid].salary);\n        employees[empid].lastPayDay = now;\n        employees[empid].salary = salary.mul(1 ether);\n        totalSalary = totalSalary.add(employees[empid].salary);\n        \n    }\n    \n\n    //增加修改员工付款地址\n    function changePaymentAddress(address oldAddress,address newAddress) public onlyOwner employeeExist(oldAddress) employeeNotExist(newAddress)\n    {\n    \tvar oldSalary = employees[oldAddress].salary;\n    \t//addEmployee(newAddress,oldSalary.div(1 ether));\n        //调用下面的代码 gas花费更少，上面代码多了除法操作需要花费gas       \n         employees[newAddress] = Employee(newAddress, oldSalary, now);\n         totalSalary = totalSalary.add(employees[newAddress].salary);\n        removeEmployee(oldAddress);\n       \n        \n    }\n\n   function addFund() public payable returns (uint leftSalary){\n        leftSalary = this.balance;\n    }\n\n   function calculateRunway() public view returns (uint times){\n      times = this.balance / totalSalary;\n    }\n\n   function hasEnoughFound() public view returns(bool enough){\n        enough =  calculateRunway() > 0;\n    }\n\n   function getPaid() public employeeExist(msg.sender) {\n        var employee = employees[msg.sender];\n        uint nextPayday = employee.lastPayDay.add(payDuration);\n    \tassert(nextPayday < now);\n\n        employees[msg.sender].lastPayDay = nextPayday;\n        employee.id.transfer(employee.salary);\n\n    }\n}\n",
  "sourcePath": "/Users/yuxuan/Guigulive/trufflePayroll/contracts/Payroll.sol",
  "compiler": {
    "name": "solc",
    "version": "0.4.19+commit.c4cbbb05.Emscripten.clang"
  },
  "schemaVersion": "2.0.0",
  "updatedAt": "2018-03-24T15:25:55.675Z"
}