{
  "contractName": "Payroll",
  "abi": [
    {
      "constant": true,
      "inputs": [],
      "name": "owner",
      "outputs": [
        {
          "name": "",
          "type": "address"
        }
      ],
      "payable": false,
      "stateMutability": "view",
      "type": "function"
    },
    {
      "constant": true,
      "inputs": [
        {
          "name": "",
          "type": "uint256"
        }
      ],
      "name": "employeeList",
      "outputs": [
        {
          "name": "",
          "type": "address"
        }
      ],
      "payable": false,
      "stateMutability": "view",
      "type": "function"
    },
    {
      "constant": true,
      "inputs": [
        {
          "name": "",
          "type": "address"
        }
      ],
      "name": "employees",
      "outputs": [
        {
          "name": "id",
          "type": "address"
        },
        {
          "name": "salary",
          "type": "uint256"
        },
        {
          "name": "lastPayday",
          "type": "uint256"
        },
        {
          "name": "index",
          "type": "uint256"
        }
      ],
      "payable": false,
      "stateMutability": "view",
      "type": "function"
    },
    {
      "constant": false,
      "inputs": [
        {
          "name": "newOwner",
          "type": "address"
        }
      ],
      "name": "transferOwnership",
      "outputs": [],
      "payable": false,
      "stateMutability": "nonpayable",
      "type": "function"
    },
    {
      "anonymous": false,
      "inputs": [
        {
          "indexed": true,
          "name": "previousOwner",
          "type": "address"
        },
        {
          "indexed": true,
          "name": "newOwner",
          "type": "address"
        }
      ],
      "name": "OwnershipTransferred",
      "type": "event"
    },
    {
      "constant": false,
      "inputs": [
        {
          "name": "index",
          "type": "uint256"
        }
      ],
      "name": "checkEmployee",
      "outputs": [
        {
          "name": "employeeId",
          "type": "address"
        },
        {
          "name": "salary",
          "type": "uint256"
        },
        {
          "name": "lastPayday",
          "type": "uint256"
        }
      ],
      "payable": false,
      "stateMutability": "nonpayable",
      "type": "function"
    },
    {
      "constant": false,
      "inputs": [
        {
          "name": "employeeId",
          "type": "address"
        },
        {
          "name": "salaryEther",
          "type": "uint256"
        }
      ],
      "name": "addEmployee",
      "outputs": [],
      "payable": false,
      "stateMutability": "nonpayable",
      "type": "function"
    },
    {
      "constant": false,
      "inputs": [
        {
          "name": "employeeId",
          "type": "address"
        }
      ],
      "name": "removeEmployee",
      "outputs": [],
      "payable": false,
      "stateMutability": "nonpayable",
      "type": "function"
    },
    {
      "constant": false,
      "inputs": [
        {
          "name": "employeeId",
          "type": "address"
        },
        {
          "name": "salaryEther",
          "type": "uint256"
        }
      ],
      "name": "updateEmployee",
      "outputs": [],
      "payable": false,
      "stateMutability": "nonpayable",
      "type": "function"
    },
    {
      "constant": false,
      "inputs": [],
      "name": "addFund",
      "outputs": [
        {
          "name": "",
          "type": "uint256"
        }
      ],
      "payable": true,
      "stateMutability": "payable",
      "type": "function"
    },
    {
      "constant": true,
      "inputs": [],
      "name": "calculateRunway",
      "outputs": [
        {
          "name": "",
          "type": "uint256"
        }
      ],
      "payable": false,
      "stateMutability": "view",
      "type": "function"
    },
    {
      "constant": true,
      "inputs": [],
      "name": "hasEnoughFund",
      "outputs": [
        {
          "name": "",
          "type": "bool"
        }
      ],
      "payable": false,
      "stateMutability": "view",
      "type": "function"
    },
    {
      "constant": false,
      "inputs": [],
      "name": "getPaid",
      "outputs": [],
      "payable": false,
      "stateMutability": "nonpayable",
      "type": "function"
    },
    {
      "constant": false,
      "inputs": [
        {
          "name": "employeeId",
          "type": "address"
        },
        {
          "name": "newEmployeeId",
          "type": "address"
        }
      ],
      "name": "changePaymentAddress",
      "outputs": [],
      "payable": false,
      "stateMutability": "nonpayable",
      "type": "function"
    },
    {
      "constant": false,
      "inputs": [],
      "name": "checkInfo",
      "outputs": [
        {
          "name": "balance",
          "type": "uint256"
        },
        {
          "name": "runway",
          "type": "uint256"
        },
        {
          "name": "employeeCount",
          "type": "uint256"
        }
      ],
      "payable": false,
      "stateMutability": "nonpayable",
      "type": "function"
    }
  ],
  "bytecode": "0x60606040526000600155336000806101000a81548173ffffffffffffffffffffffffffffffffffffffff021916908373ffffffffffffffffffffffffffffffffffffffff1602179055506115a6806100586000396000f3006060604052600436106100d0576000357c0100000000000000000000000000000000000000000000000000000000900463ffffffff16806323fed09e146100d55780634ec19512146101025780635e91d8ec1461012b57806385a962581461016d5780638da5cb5b146101a457806396b02696146101f9578063a2f09dfa1461026a578063bc456c4214610288578063c3b2d07a146102e0578063cf41d6f814610343578063d067894714610358578063d108177a146103e6578063e7fd9a131461041f578063f2fde38b14610461575b600080fd5b34156100e057600080fd5b6100e861049a565b604051808215151515815260200191505060405180910390f35b341561010d57600080fd5b6101156104ab565b6040518082815260200191505060405180910390f35b341561013657600080fd5b61016b600480803573ffffffffffffffffffffffffffffffffffffffff169060200190919080359060200190919050506104de565b005b341561017857600080fd5b61018061077f565b60405180848152602001838152602001828152602001935050505060405180910390f35b34156101af57600080fd5b6101b76107c1565b604051808273ffffffffffffffffffffffffffffffffffffffff1673ffffffffffffffffffffffffffffffffffffffff16815260200191505060405180910390f35b341561020457600080fd5b61021a60048080359060200190919050506107e6565b604051808473ffffffffffffffffffffffffffffffffffffffff1673ffffffffffffffffffffffffffffffffffffffff168152602001838152602001828152602001935050505060405180910390f35b610272610880565b6040518082815260200191505060405180910390f35b341561029357600080fd5b6102de600480803573ffffffffffffffffffffffffffffffffffffffff1690602001909190803573ffffffffffffffffffffffffffffffffffffffff1690602001909190505061089f565b005b34156102eb57600080fd5b6103016004808035906020019091905050610a85565b604051808273ffffffffffffffffffffffffffffffffffffffff1673ffffffffffffffffffffffffffffffffffffffff16815260200191505060405180910390f35b341561034e57600080fd5b610356610ac4565b005b341561036357600080fd5b61038f600480803573ffffffffffffffffffffffffffffffffffffffff16906020019091905050610c73565b604051808573ffffffffffffffffffffffffffffffffffffffff1673ffffffffffffffffffffffffffffffffffffffff16815260200184815260200183815260200182815260200194505050505060405180910390f35b34156103f157600080fd5b61041d600480803573ffffffffffffffffffffffffffffffffffffffff16906020019091905050610cc3565b005b341561042a57600080fd5b61045f600480803573ffffffffffffffffffffffffffffffffffffffff16906020019091908035906020019091905050610fe8565b005b341561046c57600080fd5b610498600480803573ffffffffffffffffffffffffffffffffffffffff16906020019091905050611258565b005b6000806104a56104ab565b11905090565b60006104d96001543073ffffffffffffffffffffffffffffffffffffffff16316113ad90919063ffffffff16565b905090565b6104e66114be565b60008060009054906101000a900473ffffffffffffffffffffffffffffffffffffffff1673ffffffffffffffffffffffffffffffffffffffff163373ffffffffffffffffffffffffffffffffffffffff1614151561054357600080fd5b836000600460008373ffffffffffffffffffffffffffffffffffffffff1673ffffffffffffffffffffffffffffffffffffffff168152602001908152602001600020905060008160000160009054906101000a900473ffffffffffffffffffffffffffffffffffffffff1673ffffffffffffffffffffffffffffffffffffffff16141515156105d157600080fd5b600460008773ffffffffffffffffffffffffffffffffffffffff1673ffffffffffffffffffffffffffffffffffffffff168152602001908152602001600020608060405190810160405290816000820160009054906101000a900473ffffffffffffffffffffffffffffffffffffffff1673ffffffffffffffffffffffffffffffffffffffff1673ffffffffffffffffffffffffffffffffffffffff168152602001600182015481526020016002820154815260200160038201548152505093506106ad670de0b6b3a7640000866113c890919063ffffffff16565b92506106da84602001516106cc856001546113fb90919063ffffffff16565b61141990919063ffffffff16565b60018190555082600460008873ffffffffffffffffffffffffffffffffffffffff1673ffffffffffffffffffffffffffffffffffffffff1681526020019081526020016000206001018190555042600460008873ffffffffffffffffffffffffffffffffffffffff1673ffffffffffffffffffffffffffffffffffffffff1681526020019081526020016000206002018190555061077784611432565b505050505050565b60008060003073ffffffffffffffffffffffffffffffffffffffff163192506003805490509050600060015411156107bc576107b96104ab565b91505b909192565b6000809054906101000a900473ffffffffffffffffffffffffffffffffffffffff1681565b6000806000806003858154811015156107fb57fe5b906000526020600020900160009054906101000a900473ffffffffffffffffffffffffffffffffffffffff169350600460008573ffffffffffffffffffffffffffffffffffffffff1673ffffffffffffffffffffffffffffffffffffffff16815260200190815260200160002090508060010154925080600201549150509193909250565b60003073ffffffffffffffffffffffffffffffffffffffff1631905090565b6000809054906101000a900473ffffffffffffffffffffffffffffffffffffffff1673ffffffffffffffffffffffffffffffffffffffff163373ffffffffffffffffffffffffffffffffffffffff161415156108fa57600080fd5b816000600460008373ffffffffffffffffffffffffffffffffffffffff1673ffffffffffffffffffffffffffffffffffffffff168152602001908152602001600020905060008160000160009054906101000a900473ffffffffffffffffffffffffffffffffffffffff1673ffffffffffffffffffffffffffffffffffffffff161415151561098857600080fd5b826000600460008373ffffffffffffffffffffffffffffffffffffffff1673ffffffffffffffffffffffffffffffffffffffff168152602001908152602001600020905060008160000160009054906101000a900473ffffffffffffffffffffffffffffffffffffffff1673ffffffffffffffffffffffffffffffffffffffff16141515610a1557600080fd5b610a7485670de0b6b3a7640000600460008a73ffffffffffffffffffffffffffffffffffffffff1673ffffffffffffffffffffffffffffffffffffffff16815260200190815260200160002060010154811515610a6e57fe5b04610fe8565b610a7d86610cc3565b505050505050565b600381815481101515610a9457fe5b90600052602060002090016000915054906101000a900473ffffffffffffffffffffffffffffffffffffffff1681565b600080336000600460008373ffffffffffffffffffffffffffffffffffffffff1673ffffffffffffffffffffffffffffffffffffffff168152602001908152602001600020905060008160000160009054906101000a900473ffffffffffffffffffffffffffffffffffffffff1673ffffffffffffffffffffffffffffffffffffffff1614151515610b5557600080fd5b600460003373ffffffffffffffffffffffffffffffffffffffff1673ffffffffffffffffffffffffffffffffffffffff1681526020019081526020016000209350610bae600a85600201546113fb90919063ffffffff16565b92504283101515610bbe57600080fd5b82600460003373ffffffffffffffffffffffffffffffffffffffff1673ffffffffffffffffffffffffffffffffffffffff168152602001908152602001600020600201819055508360000160009054906101000a900473ffffffffffffffffffffffffffffffffffffffff1673ffffffffffffffffffffffffffffffffffffffff166108fc85600101549081150290604051600060405180830381858888f193505050501515610c6d57600080fd5b50505050565b60046020528060005260406000206000915090508060000160009054906101000a900473ffffffffffffffffffffffffffffffffffffffff16908060010154908060020154908060030154905084565b610ccb6114be565b60008060009054906101000a900473ffffffffffffffffffffffffffffffffffffffff1673ffffffffffffffffffffffffffffffffffffffff163373ffffffffffffffffffffffffffffffffffffffff16141515610d2857600080fd5b826000600460008373ffffffffffffffffffffffffffffffffffffffff1673ffffffffffffffffffffffffffffffffffffffff168152602001908152602001600020905060008160000160009054906101000a900473ffffffffffffffffffffffffffffffffffffffff1673ffffffffffffffffffffffffffffffffffffffff1614151515610db657600080fd5b600460008673ffffffffffffffffffffffffffffffffffffffff1673ffffffffffffffffffffffffffffffffffffffff168152602001908152602001600020608060405190810160405290816000820160009054906101000a900473ffffffffffffffffffffffffffffffffffffffff1673ffffffffffffffffffffffffffffffffffffffff1673ffffffffffffffffffffffffffffffffffffffff16815260200160018201548152602001600282015481526020016003820154815250509350610e90600160038054905061141990919063ffffffff16565b9250600383815481101515610ea157fe5b906000526020600020900160009054906101000a900473ffffffffffffffffffffffffffffffffffffffff1660038560600151815481101515610ee057fe5b906000526020600020900160006101000a81548173ffffffffffffffffffffffffffffffffffffffff021916908373ffffffffffffffffffffffffffffffffffffffff16021790555082600381610f3791906114fd565b50600460008673ffffffffffffffffffffffffffffffffffffffff1673ffffffffffffffffffffffffffffffffffffffff168152602001908152602001600020600080820160006101000a81549073ffffffffffffffffffffffffffffffffffffffff02191690556001820160009055600282016000905560038201600090555050610fd2846020015160015461141990919063ffffffff16565b600181905550610fe184611432565b5050505050565b60008060009054906101000a900473ffffffffffffffffffffffffffffffffffffffff1673ffffffffffffffffffffffffffffffffffffffff163373ffffffffffffffffffffffffffffffffffffffff1614151561104557600080fd5b826000600460008373ffffffffffffffffffffffffffffffffffffffff1673ffffffffffffffffffffffffffffffffffffffff168152602001908152602001600020905060008160000160009054906101000a900473ffffffffffffffffffffffffffffffffffffffff1673ffffffffffffffffffffffffffffffffffffffff161415156110d257600080fd5b6110ed670de0b6b3a7640000856113c890919063ffffffff16565b92506080604051908101604052808673ffffffffffffffffffffffffffffffffffffffff168152602001848152602001428152602001600380549050815250600460008773ffffffffffffffffffffffffffffffffffffffff1673ffffffffffffffffffffffffffffffffffffffff16815260200190815260200160002060008201518160000160006101000a81548173ffffffffffffffffffffffffffffffffffffffff021916908373ffffffffffffffffffffffffffffffffffffffff160217905550602082015181600101556040820151816002015560608201518160030155905050600380548060010182816111e79190611529565b9160005260206000209001600087909190916101000a81548173ffffffffffffffffffffffffffffffffffffffff021916908373ffffffffffffffffffffffffffffffffffffffff1602179055505061124b836001546113fb90919063ffffffff16565b6001819055505050505050565b6000809054906101000a900473ffffffffffffffffffffffffffffffffffffffff1673ffffffffffffffffffffffffffffffffffffffff163373ffffffffffffffffffffffffffffffffffffffff161415156112b357600080fd5b600073ffffffffffffffffffffffffffffffffffffffff168173ffffffffffffffffffffffffffffffffffffffff16141515156112ef57600080fd5b8073ffffffffffffffffffffffffffffffffffffffff166000809054906101000a900473ffffffffffffffffffffffffffffffffffffffff1673ffffffffffffffffffffffffffffffffffffffff167f8be0079c531659141344cd1fd0a4f28419497f9722a3daafe3b4186f6b6457e060405160405180910390a3806000806101000a81548173ffffffffffffffffffffffffffffffffffffffff021916908373ffffffffffffffffffffffffffffffffffffffff16021790555050565b60008082848115156113bb57fe5b0490508091505092915050565b600080828402905060008414806113e957508284828115156113e657fe5b04145b15156113f157fe5b8091505092915050565b600080828401905083811015151561140f57fe5b8091505092915050565b600082821115151561142757fe5b818303905092915050565b60006114748260200151611466600a61145886604001514261141990919063ffffffff16565b6113ad90919063ffffffff16565b6113c890919063ffffffff16565b9050816000015173ffffffffffffffffffffffffffffffffffffffff166108fc829081150290604051600060405180830381858888f1935050505015156114ba57600080fd5b5050565b608060405190810160405280600073ffffffffffffffffffffffffffffffffffffffff1681526020016000815260200160008152602001600081525090565b815481835581811511611524578183600052602060002091820191016115239190611555565b5b505050565b8154818355818115116115505781836000526020600020918201910161154f9190611555565b5b505050565b61157791905b8082111561157357600081600090555060010161155b565b5090565b905600a165627a7a723058200bb22991d601c5acb87b4ee7fc846200b359b62b26b2fb8d4460af82a8e5df370029",
  "source": "pragma solidity ^0.4.14;\n\nimport './Ownable.sol';\nimport './SafeMath.sol';\n\n\ncontract Payroll is Ownable{\n    using SafeMath for uint;\n\n    struct Employee {\n        address id;\n        // 注意单位：单位 wei\n        uint salary;\n        uint lastPayday;\n        uint index;\n    }\n\n    // 30 days\n    uint constant payDuration = 10 seconds;\n    uint totalSalary = 0;\n    uint totalEmployee;\n    address[] public employeeList;\n    mapping(address => Employee) public employees;\n\n    // 需判断雇员已存在\n    modifier employeeExist(address employeeId) {\n        Employee  employee = employees[employeeId];\n        require(employee.id != 0x0);\n        _;\n    }\n\n    // 需判断雇员不存在\n    modifier employeeNotExist(address employeeId) {\n        Employee  employee = employees[employeeId];\n        require(employee.id == 0x0);\n        _;\n    }\n\n    function _partialPaid(Employee employee) private {\n        uint payments =  now.sub(employee.lastPayday)\n        .div(payDuration)\n        .mul(employee.salary);\n\n        employee.id.transfer(payments);\n    }\n\n    function checkEmployee(uint index) returns (address employeeId, uint salary, uint lastPayday) {\n        employeeId = employeeList[index];\n        var employee = employees[employeeId];\n        salary = employee.salary;\n        lastPayday = employee.lastPayday;\n    }\n\n    function addEmployee(address employeeId, uint salaryEther)\n    onlyOwner employeeNotExist(employeeId) {\n        uint salary = salaryEther.mul(1 ether);\n\n        employees[employeeId] = Employee(employeeId, salary, now, employeeList.length);\n        employeeList.push(employeeId);\n        totalSalary = totalSalary.add(salary);\n    }\n\n    function removeEmployee(address employeeId)\n    onlyOwner  employeeExist(employeeId) {\n        Employee memory employee= employees[employeeId];\n\n        uint lastIndex = employeeList.length.sub(1);\n        employeeList[employee.index] = employeeList[lastIndex];\n        employeeList.length = lastIndex;\n\n        delete employees[employeeId];\n\n        totalSalary = totalSalary.sub(employee.salary);\n\n        _partialPaid(employee);\n    }\n\n    function updateEmployee(address employeeId, uint salaryEther)\n    onlyOwner employeeExist(employeeId) {\n        Employee memory employee= employees[employeeId];\n\n        uint salary = salaryEther.mul(1 ether);\n        totalSalary = totalSalary.add(salary).sub(employee.salary);\n        employees[employeeId].salary = salary;\n        employees[employeeId].lastPayday = now;\n\n        _partialPaid(employee);\n    }\n\n    function addFund()  payable returns (uint) {\n        return this.balance;\n    }\n\n    function calculateRunway() view returns (uint) {\n        return this.balance.div(totalSalary);\n    }\n\n    function hasEnoughFund() view returns (bool) {\n        return calculateRunway() > 0;\n    }\n\n    function getPaid() employeeExist(msg.sender){\n        Employee storage employee = employees[msg.sender];\n\n        uint nextPayday = employee.lastPayday.add(payDuration);\n        require(nextPayday < now);\n\n        employees[msg.sender].lastPayday = nextPayday;\n        employee.id.transfer(employee.salary);\n    }\n\n    function changePaymentAddress(address employeeId,address newEmployeeId)\n    onlyOwner employeeExist(employeeId) employeeNotExist(newEmployeeId) {\n\n        addEmployee( newEmployeeId, employees[employeeId].salary / 1 ether);\n        removeEmployee( employeeId);\n\n    }\n\n    function checkInfo() returns (uint balance, uint runway, uint employeeCount) {\n        balance = this.balance;\n        employeeCount = employeeList.length;\n\n\n        if (totalSalary > 0) {\n            runway = calculateRunway();\n        }\n    }\n\n}\n",
  "sourcePath": "/Users/jianghongwei/Documents/learn/Team-B/Lesson-5/assignment/contracts/Payroll.sol",
  "compiler": {
    "name": "solc",
    "version": "0.4.19+commit.c4cbbb05.Emscripten.clang"
  },
  "schemaVersion": "2.0.0",
  "updatedAt": "2018-03-28T01:40:24.295Z"
}