{
  "contractName": "Payroll",
  "abi": [
    {
      "constant": true,
      "inputs": [
        {
          "name": "",
          "type": "address"
        }
      ],
      "name": "employees",
      "outputs": [
        {
          "name": "id",
          "type": "address"
        },
        {
          "name": "salary",
          "type": "uint256"
        },
        {
          "name": "payDay",
          "type": "uint256"
        }
      ],
      "payable": false,
      "stateMutability": "view",
      "type": "function"
    },
    {
      "inputs": [],
      "payable": false,
      "stateMutability": "nonpayable",
      "type": "constructor"
    },
    {
      "constant": false,
      "inputs": [
        {
          "name": "e",
          "type": "address"
        },
        {
          "name": "s",
          "type": "uint256"
        }
      ],
      "name": "addEmployee",
      "outputs": [
        {
          "name": "",
          "type": "address"
        }
      ],
      "payable": false,
      "stateMutability": "nonpayable",
      "type": "function"
    },
    {
      "constant": false,
      "inputs": [
        {
          "name": "e",
          "type": "address"
        }
      ],
      "name": "checkSumSalary",
      "outputs": [
        {
          "name": "",
          "type": "uint256"
        }
      ],
      "payable": false,
      "stateMutability": "nonpayable",
      "type": "function"
    },
    {
      "constant": false,
      "inputs": [
        {
          "name": "e",
          "type": "address"
        }
      ],
      "name": "removeEmployee",
      "outputs": [
        {
          "name": "",
          "type": "address"
        }
      ],
      "payable": false,
      "stateMutability": "nonpayable",
      "type": "function"
    },
    {
      "constant": false,
      "inputs": [
        {
          "name": "e",
          "type": "address"
        }
      ],
      "name": "checkEmployee",
      "outputs": [
        {
          "name": "salary",
          "type": "uint256"
        },
        {
          "name": "id",
          "type": "address"
        },
        {
          "name": "payDay",
          "type": "uint256"
        }
      ],
      "payable": false,
      "stateMutability": "nonpayable",
      "type": "function"
    },
    {
      "constant": false,
      "inputs": [],
      "name": "addFund",
      "outputs": [
        {
          "name": "",
          "type": "uint256"
        }
      ],
      "payable": true,
      "stateMutability": "payable",
      "type": "function"
    },
    {
      "constant": false,
      "inputs": [],
      "name": "calculateRunway",
      "outputs": [
        {
          "name": "",
          "type": "uint256"
        }
      ],
      "payable": false,
      "stateMutability": "nonpayable",
      "type": "function"
    },
    {
      "constant": false,
      "inputs": [],
      "name": "hasEnoughFund",
      "outputs": [
        {
          "name": "",
          "type": "bool"
        }
      ],
      "payable": false,
      "stateMutability": "nonpayable",
      "type": "function"
    },
    {
      "constant": false,
      "inputs": [
        {
          "name": "e",
          "type": "address"
        },
        {
          "name": "s",
          "type": "uint256"
        }
      ],
      "name": "updateEmployeeSalary",
      "outputs": [],
      "payable": false,
      "stateMutability": "nonpayable",
      "type": "function"
    },
    {
      "constant": false,
      "inputs": [
        {
          "name": "eid",
          "type": "address"
        },
        {
          "name": "payment_addr",
          "type": "address"
        }
      ],
      "name": "changeId",
      "outputs": [],
      "payable": false,
      "stateMutability": "nonpayable",
      "type": "function"
    },
    {
      "constant": false,
      "inputs": [
        {
          "name": "e_old",
          "type": "address"
        },
        {
          "name": "e_new",
          "type": "address"
        }
      ],
      "name": "changePaymentAddress",
      "outputs": [],
      "payable": false,
      "stateMutability": "nonpayable",
      "type": "function"
    },
    {
      "constant": false,
      "inputs": [],
      "name": "getPaid",
      "outputs": [],
      "payable": false,
      "stateMutability": "nonpayable",
      "type": "function"
    }
  ],
  "bytecode": "0x6060604052341561000f57600080fd5b336000806101000a81548173ffffffffffffffffffffffffffffffffffffffff021916908373ffffffffffffffffffffffffffffffffffffffff1602179055506116b08061005e6000396000f3006060604052600436106100ba576000357c0100000000000000000000000000000000000000000000000000000000900463ffffffff16806323fed09e146100bf5780634ec19512146100ec5780637cf562b71461011557806389fbf2941461019c57806390ea596c146101e9578063a2f09dfa14610241578063bc456c421461025f578063cf41d6f8146102b7578063d0678947146102cc578063d108177a14610353578063e7fd9a13146103cc578063ec34ece81461044e575b600080fd5b34156100ca57600080fd5b6100d2610490565b604051808215151515815260200191505060405180910390f35b34156100f757600080fd5b6100ff610520565b6040518082815260200191505060405180910390f35b341561012057600080fd5b61014c600480803573ffffffffffffffffffffffffffffffffffffffff16906020019091905050610561565b604051808481526020018373ffffffffffffffffffffffffffffffffffffffff1673ffffffffffffffffffffffffffffffffffffffff168152602001828152602001935050505060405180910390f35b34156101a757600080fd5b6101d3600480803573ffffffffffffffffffffffffffffffffffffffff169060200190919050506105e5565b6040518082815260200191505060405180910390f35b34156101f457600080fd5b61023f600480803573ffffffffffffffffffffffffffffffffffffffff1690602001909190803573ffffffffffffffffffffffffffffffffffffffff16906020019091905050610677565b005b6102496108a7565b6040518082815260200191505060405180910390f35b341561026a57600080fd5b6102b5600480803573ffffffffffffffffffffffffffffffffffffffff1690602001909190803573ffffffffffffffffffffffffffffffffffffffff169060200190919050506108c6565b005b34156102c257600080fd5b6102ca610c67565b005b34156102d757600080fd5b610303600480803573ffffffffffffffffffffffffffffffffffffffff16906020019091905050610e10565b604051808473ffffffffffffffffffffffffffffffffffffffff1673ffffffffffffffffffffffffffffffffffffffff168152602001838152602001828152602001935050505060405180910390f35b341561035e57600080fd5b61038a600480803573ffffffffffffffffffffffffffffffffffffffff16906020019091905050610e5a565b604051808273ffffffffffffffffffffffffffffffffffffffff1673ffffffffffffffffffffffffffffffffffffffff16815260200191505060405180910390f35b34156103d757600080fd5b61040c600480803573ffffffffffffffffffffffffffffffffffffffff169060200190919080359060200190919050506110a6565b604051808273ffffffffffffffffffffffffffffffffffffffff1673ffffffffffffffffffffffffffffffffffffffff16815260200191505060405180910390f35b341561045957600080fd5b61048e600480803573ffffffffffffffffffffffffffffffffffffffff169060200190919080359060200190919050506112b6565b005b6000803073ffffffffffffffffffffffffffffffffffffffff16634ec195126000604051602001526040518163ffffffff167c0100000000000000000000000000000000000000000000000000000000028152600401602060405180830381600087803b15156104ff57600080fd5b6102c65a03f1151561051057600080fd5b5050506040518051905011905090565b6000806001541415151561053057fe5b61055c6001543073ffffffffffffffffffffffffffffffffffffffff163161156190919063ffffffff16565b905090565b600080600080600260008673ffffffffffffffffffffffffffffffffffffffff1673ffffffffffffffffffffffffffffffffffffffff168152602001908152602001600020905080600101548160000160009054906101000a900473ffffffffffffffffffffffffffffffffffffffff168260020154935093509350509193909250565b6000806000600260008573ffffffffffffffffffffffffffffffffffffffff1673ffffffffffffffffffffffffffffffffffffffff168152602001908152602001600020915061066b600a61065d61064a85600201544261157c90919063ffffffff16565b856001015461159590919063ffffffff16565b61156190919063ffffffff16565b90508092505050919050565b60008060009054906101000a900473ffffffffffffffffffffffffffffffffffffffff1673ffffffffffffffffffffffffffffffffffffffff163373ffffffffffffffffffffffffffffffffffffffff161415156106d457600080fd5b826000600260008373ffffffffffffffffffffffffffffffffffffffff1673ffffffffffffffffffffffffffffffffffffffff168152602001908152602001600020905060008160000160009054906101000a900473ffffffffffffffffffffffffffffffffffffffff1673ffffffffffffffffffffffffffffffffffffffff161415151561075f57fe5b600260008673ffffffffffffffffffffffffffffffffffffffff1673ffffffffffffffffffffffffffffffffffffffff168152602001908152602001600020925061081f83606060405190810160405290816000820160009054906101000a900473ffffffffffffffffffffffffffffffffffffffff1673ffffffffffffffffffffffffffffffffffffffff1673ffffffffffffffffffffffffffffffffffffffff168152602001600182015481526020016002820154815250506115d0565b83600260008773ffffffffffffffffffffffffffffffffffffffff1673ffffffffffffffffffffffffffffffffffffffff16815260200190815260200160002060000160006101000a81548173ffffffffffffffffffffffffffffffffffffffff021916908373ffffffffffffffffffffffffffffffffffffffff1602179055505050505050565b60003073ffffffffffffffffffffffffffffffffffffffff1631905090565b60008060009054906101000a900473ffffffffffffffffffffffffffffffffffffffff1673ffffffffffffffffffffffffffffffffffffffff163373ffffffffffffffffffffffffffffffffffffffff1614151561092357600080fd5b826000600260008373ffffffffffffffffffffffffffffffffffffffff1673ffffffffffffffffffffffffffffffffffffffff168152602001908152602001600020905060008160000160009054906101000a900473ffffffffffffffffffffffffffffffffffffffff1673ffffffffffffffffffffffffffffffffffffffff16141515156109ae57fe5b836000600260008373ffffffffffffffffffffffffffffffffffffffff1673ffffffffffffffffffffffffffffffffffffffff168152602001908152602001600020905060008160000160009054906101000a900473ffffffffffffffffffffffffffffffffffffffff1673ffffffffffffffffffffffffffffffffffffffff16141515610a3857fe5b600260008873ffffffffffffffffffffffffffffffffffffffff1673ffffffffffffffffffffffffffffffffffffffff1681526020019081526020016000209450610af885606060405190810160405290816000820160009054906101000a900473ffffffffffffffffffffffffffffffffffffffff1673ffffffffffffffffffffffffffffffffffffffff1673ffffffffffffffffffffffffffffffffffffffff168152602001600182015481526020016002820154815250506115d0565b6060604051908101604052808773ffffffffffffffffffffffffffffffffffffffff168152602001610b3f670de0b6b3a7640000886001015461159590919063ffffffff16565b815260200142815250600260008873ffffffffffffffffffffffffffffffffffffffff1673ffffffffffffffffffffffffffffffffffffffff16815260200190815260200160002060008201518160000160006101000a81548173ffffffffffffffffffffffffffffffffffffffff021916908373ffffffffffffffffffffffffffffffffffffffff1602179055506020820151816001015560408201518160020155905050600260008873ffffffffffffffffffffffffffffffffffffffff1673ffffffffffffffffffffffffffffffffffffffff168152602001908152602001600020600080820160006101000a81549073ffffffffffffffffffffffffffffffffffffffff021916905560018201600090556002820160009055505050505050505050565b600080336000600260008373ffffffffffffffffffffffffffffffffffffffff1673ffffffffffffffffffffffffffffffffffffffff168152602001908152602001600020905060008160000160009054906101000a900473ffffffffffffffffffffffffffffffffffffffff1673ffffffffffffffffffffffffffffffffffffffff1614151515610cf557fe5b600260003373ffffffffffffffffffffffffffffffffffffffff1673ffffffffffffffffffffffffffffffffffffffff1681526020019081526020016000209350610d4e600a856002015461166690919063ffffffff16565b92504283101515610d5b57fe5b82600260003373ffffffffffffffffffffffffffffffffffffffff1673ffffffffffffffffffffffffffffffffffffffff168152602001908152602001600020600201819055508360000160009054906101000a900473ffffffffffffffffffffffffffffffffffffffff1673ffffffffffffffffffffffffffffffffffffffff166108fc85600101549081150290604051600060405180830381858888f193505050501515610e0a57600080fd5b50505050565b60026020528060005260406000206000915090508060000160009054906101000a900473ffffffffffffffffffffffffffffffffffffffff16908060010154908060020154905083565b6000806000809054906101000a900473ffffffffffffffffffffffffffffffffffffffff1673ffffffffffffffffffffffffffffffffffffffff163373ffffffffffffffffffffffffffffffffffffffff16141515610eb857600080fd5b826000600260008373ffffffffffffffffffffffffffffffffffffffff1673ffffffffffffffffffffffffffffffffffffffff168152602001908152602001600020905060008160000160009054906101000a900473ffffffffffffffffffffffffffffffffffffffff1673ffffffffffffffffffffffffffffffffffffffff1614151515610f4357fe5b600260008673ffffffffffffffffffffffffffffffffffffffff1673ffffffffffffffffffffffffffffffffffffffff168152602001908152602001600020925061100383606060405190810160405290816000820160009054906101000a900473ffffffffffffffffffffffffffffffffffffffff1673ffffffffffffffffffffffffffffffffffffffff1673ffffffffffffffffffffffffffffffffffffffff168152602001600182015481526020016002820154815250506115d0565b61101c836001015460015461157c90919063ffffffff16565b600181905550600260008673ffffffffffffffffffffffffffffffffffffffff1673ffffffffffffffffffffffffffffffffffffffff168152602001908152602001600020600080820160006101000a81549073ffffffffffffffffffffffffffffffffffffffff0219169055600182016000905560028201600090555050849350505050919050565b60008060009054906101000a900473ffffffffffffffffffffffffffffffffffffffff1673ffffffffffffffffffffffffffffffffffffffff163373ffffffffffffffffffffffffffffffffffffffff1614151561110357600080fd5b826000600260008373ffffffffffffffffffffffffffffffffffffffff1673ffffffffffffffffffffffffffffffffffffffff168152602001908152602001600020905060008160000160009054906101000a900473ffffffffffffffffffffffffffffffffffffffff1673ffffffffffffffffffffffffffffffffffffffff1614151561118d57fe5b6111bc6111ab670de0b6b3a76400008661159590919063ffffffff16565b60015461166690919063ffffffff16565b6001819055506060604051908101604052808673ffffffffffffffffffffffffffffffffffffffff168152602001611205670de0b6b3a76400008761159590919063ffffffff16565b815260200142815250600260008773ffffffffffffffffffffffffffffffffffffffff1673ffffffffffffffffffffffffffffffffffffffff16815260200190815260200160002060008201518160000160006101000a81548173ffffffffffffffffffffffffffffffffffffffff021916908373ffffffffffffffffffffffffffffffffffffffff1602179055506020820151816001015560408201518160020155905050849250505092915050565b60008060009054906101000a900473ffffffffffffffffffffffffffffffffffffffff1673ffffffffffffffffffffffffffffffffffffffff163373ffffffffffffffffffffffffffffffffffffffff1614151561131357600080fd5b826000600260008373ffffffffffffffffffffffffffffffffffffffff1673ffffffffffffffffffffffffffffffffffffffff168152602001908152602001600020905060008160000160009054906101000a900473ffffffffffffffffffffffffffffffffffffffff1673ffffffffffffffffffffffffffffffffffffffff161415151561139e57fe5b600260008673ffffffffffffffffffffffffffffffffffffffff1673ffffffffffffffffffffffffffffffffffffffff168152602001908152602001600020925061145e83606060405190810160405290816000820160009054906101000a900473ffffffffffffffffffffffffffffffffffffffff1673ffffffffffffffffffffffffffffffffffffffff1673ffffffffffffffffffffffffffffffffffffffff168152602001600182015481526020016002820154815250506115d0565b611477836001015460015461157c90919063ffffffff16565b600181905550611498670de0b6b3a76400008561159590919063ffffffff16565b600260008773ffffffffffffffffffffffffffffffffffffffff1673ffffffffffffffffffffffffffffffffffffffff1681526020019081526020016000206001018190555061150d6114fc670de0b6b3a76400008661159590919063ffffffff16565b60015461166690919063ffffffff16565b60018190555042600260008773ffffffffffffffffffffffffffffffffffffffff1673ffffffffffffffffffffffffffffffffffffffff168152602001908152602001600020600201819055505050505050565b600080828481151561156f57fe5b0490508091505092915050565b600082821115151561158a57fe5b818303905092915050565b60008060008414156115aa57600091506115c9565b82840290508284828115156115bb57fe5b041415156115c557fe5b8091505b5092915050565b6000611612600a6116046115f185604001514261157c90919063ffffffff16565b856020015161159590919063ffffffff16565b61156190919063ffffffff16565b905042826040018181525050816000015173ffffffffffffffffffffffffffffffffffffffff166108fc829081150290604051600060405180830381858888f19350505050151561166257600080fd5b5050565b600080828401905083811015151561167a57fe5b80915050929150505600a165627a7a723058201d64e29d4bb21e48d8ba5a4b97ac0c3a867706dd0465d93010fe83f427f00e040029",
  "source": "pragma solidity ^0.4.14;\n\nimport \"./SafeMath.sol\";\n\ncontract Payroll {\n    //init\n    address owner;\n    uint constant payDuration = 10 seconds;\n    uint totalSalary;\n    using SafeMath for uint;\n    \n    struct Employee {\n        address id;//could used as payment address\n        uint salary;\n        uint payDay;\n    }\n    \n    mapping (address => Employee) public employees;\n    //address[] employeeIds;\n\n    function Payroll() {\n        owner = msg.sender;\n    }\n    \n    modifier onlyOwner {\n        require (msg.sender == owner);\n        _;\n    }\n    \n    modifier employeeExist(address e) {\n        var employee = employees[e];\n        assert (employee.id != 0x0);\n        _;\n    }\n    \n    modifier indexNotUsed(address e) {\n        var employee = employees[e];\n        assert (employee.id == 0x0);\n        _;\n    }\n    \n    function addEmployee(address e, uint s) onlyOwner indexNotUsed(e) returns (address) {\n        totalSalary = totalSalary.add (s.mul(1 ether));\n        employees[e] = Employee(e, s.mul(1 ether), now);\n        return e;\n    }\n    \n    function _partialPaid (Employee e) private {\n        uint payment =  e.salary.mul(now.sub(e.payDay)).div(payDuration);\n        e.payDay = now;\n        e.id.transfer(payment);\n    }\n    \n    function checkSumSalary (address e) returns (uint){\n        var employee = employees[e];\n        uint payment =  employee.salary.mul(now.sub(employee.payDay)).div(payDuration);\n        return payment;\n    }\n    \n    function removeEmployee(address e) onlyOwner employeeExist(e) returns (address) {\n        var employee = employees[e];\n        _partialPaid(employee);\n        totalSalary = totalSalary.sub (employee.salary);\n        delete employees[e];\n        return e;\n    }\n    \n    function checkEmployee (address e) returns (uint salary, address id, uint payDay) {\n        var employee = employees[e];\n        return (employee.salary, employee.id, employee.payDay);\n    }\n\n    \n    function addFund() payable returns (uint) {\n        return this.balance;\n    }\n    \n    function calculateRunway() returns (uint) {\n        assert (totalSalary != 0);\n        return this.balance.div(totalSalary);\n    }\n    \n    function hasEnoughFund() returns (bool) {\n        return this.calculateRunway() > 0;\n    }\n    \n    function updateEmployeeSalary (address e, uint s) onlyOwner employeeExist(e) {\n        var employee = employees[e];\n        _partialPaid (employee);\n    \n        totalSalary = totalSalary.sub (employee.salary);\n        employees[e].salary = s.mul(1 ether);\n        totalSalary = totalSalary.add(s.mul(1 ether));\n        employees[e].payDay = now;\n    }\n    \n    //assignment3\n    //Only change employee id for payment address, which may result in payment adddress conflict.\n    function changeId (address eid, address payment_addr) onlyOwner employeeExist(eid) {\n        var employee = employees[eid];\n        _partialPaid (employee);\n        employees[eid].id = payment_addr;\n    }\n    \n    //Change employee index and id in the same time.\n    function changePaymentAddress (address e_old, address e_new) onlyOwner employeeExist(e_old) indexNotUsed(e_new){\n        var employee_old = employees[e_old];\n        _partialPaid (employee_old);\n        employees[e_new] = Employee(e_new, employee_old.salary.mul(1 ether), now);\n        delete employees[e_old];\n    }\n    \n    function getPaid() employeeExist(msg.sender) {\n        var employee = employees[msg.sender];\n        uint nextPayDay = employee.payDay.add(payDuration);\n        assert (nextPayDay < now);\n        employees[msg.sender].payDay = nextPayDay;//must: change state before transfer\n        employee.id.transfer(employee.salary);\n    }\n}",
  "sourcePath": "/home/juicebox/workspace/assignment4/contracts/Payroll.sol",
  "compiler": {
    "name": "solc",
    "version": "0.4.19+commit.c4cbbb05.Emscripten.clang"
  },
  "schemaVersion": "2.0.0",
  "updatedAt": "2018-03-22T21:24:25.456Z"
}