{
  "contractName": "Payroll",
  "abi": [
    {
      "constant": true,
      "inputs": [
        {
          "name": "",
          "type": "address"
        }
      ],
      "name": "employees",
      "outputs": [
        {
          "name": "id",
          "type": "address"
        },
        {
          "name": "salary",
          "type": "uint256"
        },
        {
          "name": "payDay",
          "type": "uint256"
        }
      ],
      "payable": false,
      "stateMutability": "view",
      "type": "function"
    },
    {
      "inputs": [],
      "payable": false,
      "stateMutability": "nonpayable",
      "type": "constructor"
    },
    {
      "constant": false,
      "inputs": [
        {
          "name": "e",
          "type": "address"
        },
        {
          "name": "s",
          "type": "uint256"
        }
      ],
      "name": "addEmployee",
      "outputs": [
        {
          "name": "",
          "type": "address"
        }
      ],
      "payable": false,
      "stateMutability": "nonpayable",
      "type": "function"
    },
    {
      "constant": false,
      "inputs": [
        {
          "name": "e",
          "type": "address"
        }
      ],
      "name": "checkSumSalary",
      "outputs": [
        {
          "name": "",
          "type": "uint256"
        }
      ],
      "payable": false,
      "stateMutability": "nonpayable",
      "type": "function"
    },
    {
      "constant": false,
      "inputs": [
        {
          "name": "e",
          "type": "address"
        }
      ],
      "name": "removeEmployee",
      "outputs": [
        {
          "name": "",
          "type": "address"
        }
      ],
      "payable": false,
      "stateMutability": "nonpayable",
      "type": "function"
    },
    {
      "constant": false,
      "inputs": [
        {
          "name": "e",
          "type": "address"
        }
      ],
      "name": "checkEmployee",
      "outputs": [
        {
          "name": "salary",
          "type": "uint256"
        },
        {
          "name": "id",
          "type": "address"
        },
        {
          "name": "payDay",
          "type": "uint256"
        }
      ],
      "payable": false,
      "stateMutability": "nonpayable",
      "type": "function"
    },
    {
      "constant": false,
      "inputs": [],
      "name": "addFund",
      "outputs": [
        {
          "name": "",
          "type": "uint256"
        }
      ],
      "payable": true,
      "stateMutability": "payable",
      "type": "function"
    },
    {
      "constant": false,
      "inputs": [],
      "name": "calculateRunway",
      "outputs": [
        {
          "name": "",
          "type": "uint256"
        }
      ],
      "payable": false,
      "stateMutability": "nonpayable",
      "type": "function"
    },
    {
      "constant": false,
      "inputs": [],
      "name": "hasEnoughFund",
      "outputs": [
        {
          "name": "",
          "type": "bool"
        }
      ],
      "payable": false,
      "stateMutability": "nonpayable",
      "type": "function"
    },
    {
      "constant": false,
      "inputs": [
        {
          "name": "e",
          "type": "address"
        },
        {
          "name": "s",
          "type": "uint256"
        }
      ],
      "name": "updateEmployeeSalary",
      "outputs": [],
      "payable": false,
      "stateMutability": "nonpayable",
      "type": "function"
    },
    {
      "constant": false,
      "inputs": [
        {
          "name": "eid",
          "type": "address"
        },
        {
          "name": "payment_addr",
          "type": "address"
        }
      ],
      "name": "changeId",
      "outputs": [],
      "payable": false,
      "stateMutability": "nonpayable",
      "type": "function"
    },
    {
      "constant": false,
      "inputs": [
        {
          "name": "e_old",
          "type": "address"
        },
        {
          "name": "e_new",
          "type": "address"
        }
      ],
      "name": "changePaymentAddress",
      "outputs": [],
      "payable": false,
      "stateMutability": "nonpayable",
      "type": "function"
    },
    {
      "constant": false,
      "inputs": [],
      "name": "getPaid",
      "outputs": [],
      "payable": false,
      "stateMutability": "nonpayable",
      "type": "function"
    },
    {
      "constant": false,
      "inputs": [],
      "name": "getInfo",
      "outputs": [
        {
          "name": "balance",
          "type": "uint256"
        },
        {
          "name": "runway",
          "type": "uint256"
        },
        {
          "name": "employeeCount",
          "type": "uint256"
        }
      ],
      "payable": false,
      "stateMutability": "nonpayable",
      "type": "function"
    }
  ],
  "bytecode": "0x6060604052341561000f57600080fd5b336000806101000a81548173ffffffffffffffffffffffffffffffffffffffff021916908373ffffffffffffffffffffffffffffffffffffffff16021790555061175d8061005e6000396000f3006060604052600436106100c5576000357c0100000000000000000000000000000000000000000000000000000000900463ffffffff16806323fed09e146100ca5780634ec19512146100f75780635a9b0b89146101205780637cf562b71461015757806389fbf294146101de57806390ea596c1461022b578063a2f09dfa14610283578063bc456c42146102a1578063cf41d6f8146102f9578063d06789471461030e578063d108177a14610395578063e7fd9a131461040e578063ec34ece814610490575b600080fd5b34156100d557600080fd5b6100dd6104d2565b604051808215151515815260200191505060405180910390f35b341561010257600080fd5b61010a610562565b6040518082815260200191505060405180910390f35b341561012b57600080fd5b6101336105a3565b60405180848152602001838152602001828152602001935050505060405180910390f35b341561016257600080fd5b61018e600480803573ffffffffffffffffffffffffffffffffffffffff169060200190919050506105d6565b604051808481526020018373ffffffffffffffffffffffffffffffffffffffff1673ffffffffffffffffffffffffffffffffffffffff168152602001828152602001935050505060405180910390f35b34156101e957600080fd5b610215600480803573ffffffffffffffffffffffffffffffffffffffff1690602001909190505061065a565b6040518082815260200191505060405180910390f35b341561023657600080fd5b610281600480803573ffffffffffffffffffffffffffffffffffffffff1690602001909190803573ffffffffffffffffffffffffffffffffffffffff169060200190919050506106ec565b005b61028b61091c565b6040518082815260200191505060405180910390f35b34156102ac57600080fd5b6102f7600480803573ffffffffffffffffffffffffffffffffffffffff1690602001909190803573ffffffffffffffffffffffffffffffffffffffff1690602001909190505061093b565b005b341561030457600080fd5b61030c610cdc565b005b341561031957600080fd5b610345600480803573ffffffffffffffffffffffffffffffffffffffff16906020019091905050610e85565b604051808473ffffffffffffffffffffffffffffffffffffffff1673ffffffffffffffffffffffffffffffffffffffff168152602001838152602001828152602001935050505060405180910390f35b34156103a057600080fd5b6103cc600480803573ffffffffffffffffffffffffffffffffffffffff16906020019091905050610ecf565b604051808273ffffffffffffffffffffffffffffffffffffffff1673ffffffffffffffffffffffffffffffffffffffff16815260200191505060405180910390f35b341561041957600080fd5b61044e600480803573ffffffffffffffffffffffffffffffffffffffff16906020019091908035906020019091905050611137565b604051808273ffffffffffffffffffffffffffffffffffffffff1673ffffffffffffffffffffffffffffffffffffffff16815260200191505060405180910390f35b341561049b57600080fd5b6104d0600480803573ffffffffffffffffffffffffffffffffffffffff16906020019091908035906020019091905050611363565b005b6000803073ffffffffffffffffffffffffffffffffffffffff16634ec195126000604051602001526040518163ffffffff167c0100000000000000000000000000000000000000000000000000000000028152600401602060405180830381600087803b151561054157600080fd5b6102c65a03f1151561055257600080fd5b5050506040518051905011905090565b6000806001541415151561057257fe5b61059e6001543073ffffffffffffffffffffffffffffffffffffffff163161160e90919063ffffffff16565b905090565b60008060003073ffffffffffffffffffffffffffffffffffffffff163192506105ca610562565b91506002549050909192565b600080600080600360008673ffffffffffffffffffffffffffffffffffffffff1673ffffffffffffffffffffffffffffffffffffffff168152602001908152602001600020905080600101548160000160009054906101000a900473ffffffffffffffffffffffffffffffffffffffff168260020154935093509350509193909250565b6000806000600360008573ffffffffffffffffffffffffffffffffffffffff1673ffffffffffffffffffffffffffffffffffffffff16815260200190815260200160002091506106e0600a6106d26106bf85600201544261162990919063ffffffff16565b856001015461164290919063ffffffff16565b61160e90919063ffffffff16565b90508092505050919050565b60008060009054906101000a900473ffffffffffffffffffffffffffffffffffffffff1673ffffffffffffffffffffffffffffffffffffffff163373ffffffffffffffffffffffffffffffffffffffff1614151561074957600080fd5b826000600360008373ffffffffffffffffffffffffffffffffffffffff1673ffffffffffffffffffffffffffffffffffffffff168152602001908152602001600020905060008160000160009054906101000a900473ffffffffffffffffffffffffffffffffffffffff1673ffffffffffffffffffffffffffffffffffffffff16141515156107d457fe5b600360008673ffffffffffffffffffffffffffffffffffffffff1673ffffffffffffffffffffffffffffffffffffffff168152602001908152602001600020925061089483606060405190810160405290816000820160009054906101000a900473ffffffffffffffffffffffffffffffffffffffff1673ffffffffffffffffffffffffffffffffffffffff1673ffffffffffffffffffffffffffffffffffffffff1681526020016001820154815260200160028201548152505061167d565b83600360008773ffffffffffffffffffffffffffffffffffffffff1673ffffffffffffffffffffffffffffffffffffffff16815260200190815260200160002060000160006101000a81548173ffffffffffffffffffffffffffffffffffffffff021916908373ffffffffffffffffffffffffffffffffffffffff1602179055505050505050565b60003073ffffffffffffffffffffffffffffffffffffffff1631905090565b60008060009054906101000a900473ffffffffffffffffffffffffffffffffffffffff1673ffffffffffffffffffffffffffffffffffffffff163373ffffffffffffffffffffffffffffffffffffffff1614151561099857600080fd5b826000600360008373ffffffffffffffffffffffffffffffffffffffff1673ffffffffffffffffffffffffffffffffffffffff168152602001908152602001600020905060008160000160009054906101000a900473ffffffffffffffffffffffffffffffffffffffff1673ffffffffffffffffffffffffffffffffffffffff1614151515610a2357fe5b836000600360008373ffffffffffffffffffffffffffffffffffffffff1673ffffffffffffffffffffffffffffffffffffffff168152602001908152602001600020905060008160000160009054906101000a900473ffffffffffffffffffffffffffffffffffffffff1673ffffffffffffffffffffffffffffffffffffffff16141515610aad57fe5b600360008873ffffffffffffffffffffffffffffffffffffffff1673ffffffffffffffffffffffffffffffffffffffff1681526020019081526020016000209450610b6d85606060405190810160405290816000820160009054906101000a900473ffffffffffffffffffffffffffffffffffffffff1673ffffffffffffffffffffffffffffffffffffffff1673ffffffffffffffffffffffffffffffffffffffff1681526020016001820154815260200160028201548152505061167d565b6060604051908101604052808773ffffffffffffffffffffffffffffffffffffffff168152602001610bb4670de0b6b3a7640000886001015461164290919063ffffffff16565b815260200142815250600360008873ffffffffffffffffffffffffffffffffffffffff1673ffffffffffffffffffffffffffffffffffffffff16815260200190815260200160002060008201518160000160006101000a81548173ffffffffffffffffffffffffffffffffffffffff021916908373ffffffffffffffffffffffffffffffffffffffff1602179055506020820151816001015560408201518160020155905050600360008873ffffffffffffffffffffffffffffffffffffffff1673ffffffffffffffffffffffffffffffffffffffff168152602001908152602001600020600080820160006101000a81549073ffffffffffffffffffffffffffffffffffffffff021916905560018201600090556002820160009055505050505050505050565b600080336000600360008373ffffffffffffffffffffffffffffffffffffffff1673ffffffffffffffffffffffffffffffffffffffff168152602001908152602001600020905060008160000160009054906101000a900473ffffffffffffffffffffffffffffffffffffffff1673ffffffffffffffffffffffffffffffffffffffff1614151515610d6a57fe5b600360003373ffffffffffffffffffffffffffffffffffffffff1673ffffffffffffffffffffffffffffffffffffffff1681526020019081526020016000209350610dc3600a856002015461171390919063ffffffff16565b92504283101515610dd057fe5b82600360003373ffffffffffffffffffffffffffffffffffffffff1673ffffffffffffffffffffffffffffffffffffffff168152602001908152602001600020600201819055508360000160009054906101000a900473ffffffffffffffffffffffffffffffffffffffff1673ffffffffffffffffffffffffffffffffffffffff166108fc85600101549081150290604051600060405180830381858888f193505050501515610e7f57600080fd5b50505050565b60036020528060005260406000206000915090508060000160009054906101000a900473ffffffffffffffffffffffffffffffffffffffff16908060010154908060020154905083565b6000806000809054906101000a900473ffffffffffffffffffffffffffffffffffffffff1673ffffffffffffffffffffffffffffffffffffffff163373ffffffffffffffffffffffffffffffffffffffff16141515610f2d57600080fd5b826000600360008373ffffffffffffffffffffffffffffffffffffffff1673ffffffffffffffffffffffffffffffffffffffff168152602001908152602001600020905060008160000160009054906101000a900473ffffffffffffffffffffffffffffffffffffffff1673ffffffffffffffffffffffffffffffffffffffff1614151515610fb857fe5b600360008673ffffffffffffffffffffffffffffffffffffffff1673ffffffffffffffffffffffffffffffffffffffff168152602001908152602001600020925061107883606060405190810160405290816000820160009054906101000a900473ffffffffffffffffffffffffffffffffffffffff1673ffffffffffffffffffffffffffffffffffffffff1673ffffffffffffffffffffffffffffffffffffffff1681526020016001820154815260200160028201548152505061167d565b611091836001015460015461162990919063ffffffff16565b6001819055506110ad600160025461162990919063ffffffff16565b600281905550600360008673ffffffffffffffffffffffffffffffffffffffff1673ffffffffffffffffffffffffffffffffffffffff168152602001908152602001600020600080820160006101000a81549073ffffffffffffffffffffffffffffffffffffffff0219169055600182016000905560028201600090555050849350505050919050565b60008060009054906101000a900473ffffffffffffffffffffffffffffffffffffffff1673ffffffffffffffffffffffffffffffffffffffff163373ffffffffffffffffffffffffffffffffffffffff1614151561119457600080fd5b826000600360008373ffffffffffffffffffffffffffffffffffffffff1673ffffffffffffffffffffffffffffffffffffffff168152602001908152602001600020905060008160000160009054906101000a900473ffffffffffffffffffffffffffffffffffffffff1673ffffffffffffffffffffffffffffffffffffffff1614151561121e57fe5b61124d61123c670de0b6b3a76400008661164290919063ffffffff16565b60015461171390919063ffffffff16565b600181905550611269600160025461171390919063ffffffff16565b6002819055506060604051908101604052808673ffffffffffffffffffffffffffffffffffffffff1681526020016112b2670de0b6b3a76400008761164290919063ffffffff16565b815260200142815250600360008773ffffffffffffffffffffffffffffffffffffffff1673ffffffffffffffffffffffffffffffffffffffff16815260200190815260200160002060008201518160000160006101000a81548173ffffffffffffffffffffffffffffffffffffffff021916908373ffffffffffffffffffffffffffffffffffffffff1602179055506020820151816001015560408201518160020155905050849250505092915050565b60008060009054906101000a900473ffffffffffffffffffffffffffffffffffffffff1673ffffffffffffffffffffffffffffffffffffffff163373ffffffffffffffffffffffffffffffffffffffff161415156113c057600080fd5b826000600360008373ffffffffffffffffffffffffffffffffffffffff1673ffffffffffffffffffffffffffffffffffffffff168152602001908152602001600020905060008160000160009054906101000a900473ffffffffffffffffffffffffffffffffffffffff1673ffffffffffffffffffffffffffffffffffffffff161415151561144b57fe5b600360008673ffffffffffffffffffffffffffffffffffffffff1673ffffffffffffffffffffffffffffffffffffffff168152602001908152602001600020925061150b83606060405190810160405290816000820160009054906101000a900473ffffffffffffffffffffffffffffffffffffffff1673ffffffffffffffffffffffffffffffffffffffff1673ffffffffffffffffffffffffffffffffffffffff1681526020016001820154815260200160028201548152505061167d565b611524836001015460015461162990919063ffffffff16565b600181905550611545670de0b6b3a76400008561164290919063ffffffff16565b600360008773ffffffffffffffffffffffffffffffffffffffff1673ffffffffffffffffffffffffffffffffffffffff168152602001908152602001600020600101819055506115ba6115a9670de0b6b3a76400008661164290919063ffffffff16565b60015461171390919063ffffffff16565b60018190555042600360008773ffffffffffffffffffffffffffffffffffffffff1673ffffffffffffffffffffffffffffffffffffffff168152602001908152602001600020600201819055505050505050565b600080828481151561161c57fe5b0490508091505092915050565b600082821115151561163757fe5b818303905092915050565b60008060008414156116575760009150611676565b828402905082848281151561166857fe5b0414151561167257fe5b8091505b5092915050565b60006116bf600a6116b161169e85604001514261162990919063ffffffff16565b856020015161164290919063ffffffff16565b61160e90919063ffffffff16565b905042826040018181525050816000015173ffffffffffffffffffffffffffffffffffffffff166108fc829081150290604051600060405180830381858888f19350505050151561170f57600080fd5b5050565b600080828401905083811015151561172757fe5b80915050929150505600a165627a7a72305820acbe2b6562e5a096143ea3f9eb2f1adde12bb095f5b5e06e4587b71b03c1c7ff0029",
  "source": "pragma solidity ^0.4.14;\n\nimport './SafeMath.sol';\n\ncontract Payroll {\n    //init\n    address owner;\n    uint constant payDuration = 10 seconds;\n    uint totalSalary;\n    uint totalEmployee;\n    using SafeMath for uint;\n    \n    struct Employee {\n        address id;//could used as payment address\n        uint salary;\n        uint payDay;\n    }\n    \n    mapping (address => Employee) public employees;\n    //address[] employeeIds;\n\n    function Payroll() {\n        owner = msg.sender;\n    }\n    \n    modifier onlyOwner {\n        require (msg.sender == owner);\n        _;\n    }\n    \n    modifier employeeExist(address e) {\n        var employee = employees[e];\n        assert (employee.id != 0x0);\n        _;\n    }\n    \n    modifier indexNotUsed(address e) {\n        var employee = employees[e];\n        assert (employee.id == 0x0);\n        _;\n    }\n    \n    function addEmployee(address e, uint s) onlyOwner indexNotUsed(e) returns (address) {\n        totalSalary = totalSalary.add (s.mul(1 ether));\n        totalEmployee = totalEmployee.add(1);\n        employees[e] = Employee(e, s.mul(1 ether), now);\n        return e;\n    }\n    \n    function _partialPaid (Employee e) private {\n        uint payment =  e.salary.mul(now.sub(e.payDay)).div(payDuration);\n        e.payDay = now;\n        e.id.transfer(payment);\n    }\n    \n    function checkSumSalary (address e) returns (uint){\n        var employee = employees[e];\n        uint payment =  employee.salary.mul(now.sub(employee.payDay)).div(payDuration);\n        return payment;\n    }\n    \n    function removeEmployee(address e) onlyOwner employeeExist(e) returns (address) {\n        var employee = employees[e];\n        _partialPaid(employee);\n        totalSalary = totalSalary.sub (employee.salary);\n        totalEmployee = totalEmployee.sub(1);\n        delete employees[e];\n        return e;\n    }\n    \n    function checkEmployee (address e) returns (uint salary, address id, uint payDay) {\n        var employee = employees[e];\n        return (employee.salary, employee.id, employee.payDay);\n    }\n\n    \n    function addFund() payable returns (uint) {\n        return this.balance;\n    }\n    \n    function calculateRunway() returns (uint) {\n        assert (totalSalary != 0);\n        return this.balance.div(totalSalary);\n    }\n    \n    function hasEnoughFund() returns (bool) {\n        return this.calculateRunway() > 0;\n    }\n    \n    function updateEmployeeSalary (address e, uint s) onlyOwner employeeExist(e) {\n        var employee = employees[e];\n        _partialPaid (employee);\n    \n        totalSalary = totalSalary.sub (employee.salary);\n        employees[e].salary = s.mul(1 ether);\n        totalSalary = totalSalary.add(s.mul(1 ether));\n        employees[e].payDay = now;\n    }\n    \n    //assignment3\n    //Only change employee id for payment address, which may result in payment adddress conflict.\n    function changeId (address eid, address payment_addr) onlyOwner employeeExist(eid) {\n        var employee = employees[eid];\n        _partialPaid (employee);\n        employees[eid].id = payment_addr;\n    }\n    \n    //Change employee index and id in the same time.\n    function changePaymentAddress (address e_old, address e_new) onlyOwner employeeExist(e_old) indexNotUsed(e_new){\n        var employee_old = employees[e_old];\n        _partialPaid (employee_old);\n        employees[e_new] = Employee(e_new, employee_old.salary.mul(1 ether), now);\n        delete employees[e_old];\n    }\n    \n    function getPaid() employeeExist(msg.sender) {\n        var employee = employees[msg.sender];\n        uint nextPayDay = employee.payDay.add(payDuration);\n        assert (nextPayDay < now);\n        employees[msg.sender].payDay = nextPayDay;//must: change state before transfer\n        employee.id.transfer(employee.salary);\n    }\n\n    function getInfo() returns (uint balance, uint runway, uint employeeCount) {\n        balance = this.balance;\n        runway = calculateRunway();\n        employeeCount = totalEmployee;\n    }\n}",
  "sourcePath": "/home/juicebox/workspace/payroll/contracts/Payroll.sol",
  "compiler": {
    "name": "solc",
    "version": "0.4.19+commit.c4cbbb05.Emscripten.clang"
  },
  "schemaVersion": "2.0.0",
  "updatedAt": "2018-03-28T02:52:49.205Z"
}